S01400005370616365497661646572732E7372656356
S11300004DC0000069C0000067C0000065C000006A
S113001063C0000061C000005FC000005DC000005C
S11300205BC0000059C0000057C0000055C000006C
S113003053C00000D5C000004FC000004DC00000F8
S11300404BC0000049C0000047C0000045C000008C
S113005043C0000041C000003FC000003DC000009C
S11300603BC0000039C0000037C0000035C00000AC
S113007033C0000031C000002FC000002DC00000BC
S11300802BC0000029C0000027C000004804A504BC
S1130090CA04D504EB04F6040105E00411241FBED0
S11300A0CFEFD0E4DEBFCDBF11E0A0E0B1E0E2E9E4
S11300B0FAE100E00BBF02C007900D92A638B10729
S11300C0D9F721E0A6E8B1E001C01D92AD3CB2072A
S11300D0E1F7D4D60C94470D93CFFC010FB6F894F6
S11300E06091C9017091CA018091CB019091CC01BA
S11300F00FBE309721F060837183828393830895C8
S1130100CF93DF9300D000D0CDB7DEB769837A8375
S11301108B839C8389819A81AB81BC818093040108
S113012090930501A0930601B09307018091040107
S113013090910501A0910601B09107018093870178
S113014090938801A0938901B0938A0100000F90D5
S11301500F900F900F90DF91CF910895CF93DF937D
S1130160CDB7DEB781E890E02BE0FC01208388E87E
S113017090E02DE730E0FC01318320838FE690E0AE
S113018022E0FC01208384E890E0FC0111821082CB
S11301908091040190910501A0910601B09107019D
S11301A08093870190938801A0938901B0938A0179
S11301B08FE590E02FE530E0F90120812068FC0113
S11301C020830000DF91CF910895CF93DF93CDB7C3
S11301D0DEB781E0809386010000DF91CF9108951E
S11301E01F920F9200905F000F92112400905B0009
S11301F00F922F933F934F935F936F937F938F93BC
S11302009F93AF93BF93EF93FF93CF93DF93CDB7B8
S1130210DEB78091870190918801A0918901B09106
S11302208A010197A109B1098093870190938801FC
S1130230A0938901B0938A018091870190918801EC
S1130240A0918901B0918A01892B8A2B8B2B89F487
S1130250BCDF8091040190910501A0910601B09149
S113026007018093870190938801A0938901B0933B
S11302708A010000DF91CF91FF91EF91BF91AF917F
S11302809F918F917F916F915F914F913F912F91AA
S11302900F9000925B000F9000925F000F901F90F0
S11302A01895CF93DF93CDB7DEB781E01AD0000065
S11302B0DF91CF910895CF93DF93CDB7DEB784E676
S11302C090E0ABD088E30DD086E00BD08FE009D06E
S11302D081E007D08AE090E0A0D00000DF91CF91C8
S11302E00895CF93DF931F92CDB7DEB7898388E259
S11302F090E028E230E0F90120812E7FFC01208388
S11303008BE290E02981FC01208388E290E028E2DE
S113031030E0F90120812260FC012083000088E2A2
S113032090E028E230E0F90120812D7FFC01208358
S113033082E090E072D000000F90DF91CF91089599
S1130340CF93DF931F92CDB7DEB7898388E290E025
S113035028E230E0F90120812160FC0120838BE256
S113036090E02981FC01208388E290E028E230E0DB
S1130370F90120812260FC012083000088E290E0E2
S113038028E230E0F90120812D7FFC01208381E007
S113039090E043D000000F90DF91CF910895CF9368
S11303A0DF9300D000D0CDB7DEB78A837C836B8324
S11303B08A8189830FC0898191E0980F998318D02D
S11303C08B819C819C012F5F3F4F3C832B83FC01DD
S11303D08081B6DF8B819C81FC018081882359F761
S11303E000000F900F900F900F90DF91CF91089520
S11303F0CF93DF931F92CDB7DEB789838981813193
S113040020F4898181586DDF03C08981815569DFBA
S113041000000F90DF91CF910895CF93DF9300D028
S113042000D000D0CDB7DEB79E838D831A821982A7
S113043013C01C821B8206C000008B819C81019624
S11304409C838B838B819C8187309340ACF389811F
S11304509A8101969A83898329813A818D819E812B
S11304602817390734F3000026960FB6F894DEBF38
S11304700FBECDBFDF91CF910895CF93DF93CDB75A
S1130480DEB782E290E022E230E0F90120812160CF
S1130490FC01208382E290E022E230E0F901208135
S11304A02260FC0120830000DF91CF910895CF9357
S11304B0DF9300D000D0CDB7DEB71A82198282E272
S11304C090E022E230E0F90120812260FC012083E7
S11304D082E290E022E230E0F90120812160FC0117
S11304E0208382E290E022E230E0F90120812D7F36
S11304F0FC01208380E290E0FC018081882F90E061
S1130500809590958470992795958795959587956D
S11305109A8389831C821B8232C082E290E022E2A9
S113052030E0F90120812E7FFC01208389819A81AA
S1130530880F991F9A83898380E290E0FC0180816F
S1130540882F90E08095909584709927959587954C
S1130550959587959C0189819A81822B932B9A8307
S1130560898382E290E022E230E0F9012081216077
S1130570FC0120838B819C8101969C838B838B81DE
S11305809C81409754F289819A810F900F900F902B
S11305900F90DF91CF910895CF93DF9300D0CDB723
S11305A0DEB789836A838981882F90E06A810E94FB
S11305B0DC0C00000F900F90DF91CF910895CF9342
S11305C0DF931F92CDB7DEB789838981882F90E0AE
S11305D00E94D40C0F90DF91CF910895CF93DF93B5
S11305E000D01F92CDB7DEB762DF9B838A83198266
S11305F08A819B8180719927892B19F08981816077
S113060089838A819B8180729927892B19F089813A
S1130610826089838A819B8180789927892B19F04C
S11306208981846089838A819B8188279470892B3E
S113063019F08981886089838A819B8188279870D1
S1130640892B19F08981806189838A819B8188271C
S11306509071892B19F089818062898389810F9037
S11306600F900F90DF91CF910895CF93DF9300D037
S1130670CDB7DEB716DE80918C01BADE80914001E1
S11306805FDE1A8219822BC089819A81880F991F93
S113069081549E4FFC0180818823E1F089819A81F5
S11306A0880F991F81549E4FFC018081813290F400
S11306B089819A81880F991F81549E4FFC01808102
S11306C097DE89819A81880F991F80549E4FFC017F
S11306D0808136DE89819A8101969A838983898112
S11306E09A8105978CF284E283DE00000F900F90CC
S11306F0DF91CF910895CF93DF9300D000D01F9264
S1130700CDB7DEB78B837D836C838B81882F90E09C
S11307100896880F880F880FE4DD1A8219820EC0AC
S113072089819A812C813D81820F931FFC018081F4
S113073007DE89819A8101969A83898389819A81C6
S1130740089774F380E8CDDD00000F900F900F90B0
S11307500F900F90DF91CF910895CF93DF9300D046
S113076000D0CDB7DEB79C838B8338DF8A8381E0EA
S113077089838A81882F90E081709927892B39F0A9
S1130780898191E0980F998363E471E008DE8A819E
S1130790882F90E082709927892B39F0898191E024
S11307A0980F998365E471E0FADD8A81882F90E0DF
S11307B084709927892B39F0898191E0980F998366
S11307C067E471E0ECDD8A81882F90E088709927D6
S11307D0892B39F0898191E0980F998369E471E05C
S11307E0DEDD8A81882F90E080719927892B39F08A
S11307F0898191E0980F99836BE471E0D0DD8A815F
S1130800882339F4898191E0980F99836DE471E02C
S1130810C6DD81E090E00F900F900F900F90DF9174
S1130820CF910895CF93DF9300D0CDB7DEB79A83ED
S1130830898381E085DD83E083DD84E081DD85E0FB
S11308407FDD86E07DDD87E07BDD81E090E00F9059
S11308500F90DF91CF910895CF93DF9300D000D014
S1130860CDB7DEB79C838B838B819C81092E000CD2
S1130870AA0BBB0B40E050E027E030E0841B950B53
S11308802817390708F4C8C08A5B9F4FFC013FC58D
S1130890A5DE898380918B01882341F402DD6FE416
S11308A071E081E07CDD81E080938B0197DE813013
S11308B089F482E080938B0181E090E09C838B83B8
S11308C081E180938C0181E0809340018EE18093EB
S11308D04201A4C083DE823089F482E080938B01DC
S11308E081E090E09C838B8381E180938C0181E0A3
S11308F08093400184E18093420190C06FDE843094
S113090089F482E080938B0181E090E09C838B8367
S113091081E180938C0181E0809340018AE080939F
S113092042017CC05BDE833121F483E680938D0138
S113093075C054DE8B3009F071C010929001809123
S11309409001682F80E028DE69C048DE8A838A81AE
S1130950883039F481E180938C0186E080934001F2
S11309605FC08A81843059F481E180938C0187E0EF
S11309708093400182E090E09C838B8351C08A8104
S1130980882309F04DC081E180938C0181E080933C
S1130990400146C081E080938C0186E08093400151
S11309A083E090E09C838B833CC081E080938C0146
S11309B081E08093400184E090E09C838B8331C08C
S11309C081E080938C0181E08093400184E090E099
S11309D09C838B8326C081E080938C0186E0809386
S11309E0400185E090E09C838B831BC081E1809370
S11309F08C0187E08093400186E090E09C838B83A8
S1130A0010C081E180938C0181E08093400181E0FA
S1130A1090E09C838B8305C0000003C0000001C0EC
S1130A20000080918B01823009F41FDE8B819C8150
S1130A300F900F900F900F90DF91CF910895CF9367
S1130A40DF9300D01F92CDB7DEB79B838A831982D0
S1130A5011C18981882F90E0880F991F81549E4F7E
S1130A60FC018081823058F08981882F90E0880FC2
S1130A70991F81549E4FFC0180818131B0F089819E
S1130A80882F90E0880F991F81549E4FFC0180812C
S1130A908231F8F08981882F90E0880F991F815462
S1130AA09E4FFC0180818132A0F48981882F90E0DF
S1130AB02981222F30E0220F331F21543E4FF901A8
S1130AC020812150880F991F81549E4FFC0120835F
S1130AD0CEC08981882F90E0880F991F81549E4F42
S1130AE0FC018081813009F050C080918C018130FB
S1130AF0B9F580914001813019F41092410135C05B
S1130B00809140018630A1F48981882F90E0880F7C
S1130B10991F80549E4FFC018081833031F4809171
S1130B208D018F5F80938D0120C0109241011DC003
S1130B30809140018730C9F48981882F90E0880F23
S1130B40991F80549E4FFC018081843031F4809140
S1130B508D018F5F80938D0108C01092410105C003
S1130B6080918D018F5F80938D018981882F90E022
S1130B70880F991F81549E4F24E2FC0120838091A9
S1130B80910181508093910172C08981882F90E0F6
S1130B90880F991F81549E4FFC018081813109F097
S1130BA066C080918C01813109F04DC08091400173
S1130BB0813019F4109241014BC08091400186307C
S1130BC0F9F48981882F90E0880F991F80549E4FF3
S1130BD0FC018081853059F08981882F90E0880F4D
S1130BE0991F80549E4FFC018081833031F48091A1
S1130BF08D018F5F80938D012BC01092410128C01D
S1130C0080914001873021F58981882F90E0880FF9
S1130C10991F80549E4FFC018081843059F0898152
S1130C20882F90E0880F991F80549E4FFC0180818B
S1130C30823031F480918D018F5F80938D0108C0E3
S1130C401092410105C080918D018F5F80938D01C9
S1130C508981882F90E0880F991F81549E4F24E248
S1130C60FC012083809191018150809391018981BD
S1130C708F5F89838981853008F4EBCE809191015F
S1130C80853008F408D081E090E00F900F900F9029
S1130C90DF91CF910895CF93DF9300D000D0CDB7EB
S1130CA0DEB79C838B8380918B01823008F4D9C09A
S1130CB090918F0180918E01891708F4D2C08091A0
S1130CC09101853008F0CDC086D381709078992346
S1130CD024F401978E6F9F6F0196898389818823FD
S1130CE009F443C080919201882F90E0880F991FE6
S1130CF081549E4F20E1FC0120836DD39C01C901E6
S1130D00880F991F880F991F820F931F23E030E0EB
S1130D10B901EAD28A838A81813061F48091920197
S1130D20882F90E0880F991F80549E4F24E0FC0187
S1130D30208372C08A81823061F480919201882F6D
S1130D4090E0880F991F80549E4F25E0FC0120837A
S1130D5063C080919201882F90E0880F991F80547E
S1130D609E4F23E0FC01208357C080919201882F7D
S1130D7090E0880F991F81549E4F20E2FC0120834C
S1130D802AD39C01C901880F991F880F991F880FC6
S1130D90991F821B930B83709078992324F40197F5
S1130DA08C6F9F6F01968A838A81813061F4809170
S1130DB09201882F90E0880F991F80549E4F23E062
S1130DC0FC01208329C08A81823061F480919201E0
S1130DD0882F90E0880F991F80549E4F25E0FC01D6
S1130DE020831AC08A81833061F480919201882F14
S1130DF090E0880F991F80549E4F22E0FC012083CD
S1130E000BC080919201882F90E0880F991F805425
S1130E109E4F24E0FC012083809191018F5F809399
S1130E20910180919201843060F08091420186307A
S1130E3028F08091420181508093420110929201E6
S1130E4005C0809192018F5F80939201C4D225E006
S1130E5030E0B90149D28F5F80938F0110928E01E7
S1130E6005C080918E018F5F80938E0100000F90EA
S1130E700F900F900F90DF91CF9108950F931F93D0
S1130E80CF93DF93CDB7DEB762970FB6F894DEBF8A
S1130E900FBECDBF84E290E02FEFFC01208385E2FA
S1130EA090E0FC01108287E290E02FEFFC012083A8
S1130EB088E290E0FC0110828AE290E02FEFFC01CE
S1130EC020838BE290E0FC01108281E290E023E039
S1130ED0FC01208382E290E02FEFFC012083CDDA35
S1130EE061E070E080E090E00BD938D9E4D968E0A3
S1130EF071E081E000DC60E171E082E0FCDB60E253
S1130F0071E083E0F8DB68E271E084E0F4DB68E13F
S1130F1071E085E0F0DB60E371E086E0ECDB68E340
S1130F2071E087E0E8DB83E991E09E838D838EE9BD
S1130F3091E098878F8382E090E09C838B8380E0AC
S1130F403EDB8F3F29F480919001682F80E024DB01
S1130F50C4D844D21092A90181E090E0A0E0B0E0AE
S1130F608093AA019093AB01A093AC01B093AD011F
S1130F701092AE011092AF011092B0011092B10123
S1130F808DEA93E09093B3018093B2011092B4017F
S1130F9081E090E0A0E0B0E08093B5019093B601C9
S1130FA0A093B701B093B8011092B9011092BA019D
S1130FB01092BB011092BC0182E194E09093BE01B7
S1130FC08093BD011092930180914201882F90E09B
S1130FD0A0E0B0E08093940190939501A0939601D2
S1130FE0B0939701109298011092990110929A016E
S1130FF010929B018CE294E090939D0180939C015C
S113100010929E0180914201882F90E0A0E0B0E010
S113101080939F019093A001A093A101B093A2019A
S11310201092A3011092A4011092A5011092A6019E
S11310308FE195E09093A8018093A701198217C0CE
S11310408981882F90E0880F991F81549E4F24E254
S1131050FC0120838981882F90E0880F991F805498
S11310609E4F22E0FC01208389818F5F89838981DF
S1131070853030F3CFC080914201882F90E0A0E00A
S1131080B0E08093940190939501A0939601B0935E
S1131090970180914201882F90E0A0E0B0E0809316
S11310A09F019093A001A093A101B093A2011A8281
S11310B0A1C08A81882F90E0880F991F9E012F5F1D
S11310C03F4F820F931F0496FC0180819181FC01A4
S11310D025813681478150858A81882F90E0880F49
S11310E0991FBE016F5F7F4F860F971F0496FC0107
S11310F080819181FC0181819281A381B48128172F
S113110039074A075B0709F049C08A81882F90E0B4
S1131110880F991F9E012F5F3F4F820F931F0496E4
S1131120FC01008111818A81882F90E0880F991F2A
S11311309E012F5F3F4F820F931F0496FC01808115
S11311409181FC01218532858A81882F90E0880F66
S1131150991FAE014F5F5F4F840F951F0496FC01EA
S113116080819181FC018081082E000C990BF9018A
S11311700995F80180838A81882F90E0880F991F50
S11311809E012F5F3F4F820F931F0496FC018081C5
S11311909181FC0115821682178210868A81882F1C
S11311A090E0880F991F9E012F5F3F4F820F931F7E
S11311B00496FC01208131818A81882F90E0880F78
S11311C0991FAE014F5F5F4F840F951F0496FC017A
S11311D080819181FC0185819681A781B0850196EA
S11311E0A11DB11DF90185839683A783B0878A81E8
S11311F08F5F8A838A81282F30E08B819C81281716
S1131200390708F456CF0000809186018823E1F362
S11312101092860180914101882309F02CCF41D896
S11312206AE671E081E0BBD880918D01882F90E05F
S1131230292F2F938F9387E791E0892F8F9387E747
S113124091E08F93CE010996292F2F938F93D1D0BC
S11312500F900F900F900F900F900F90CE01099662
S1131260BC018CE09CD86AE771E081E198D880E009
S1131270A6D9982F80918D01981748F480918D01FB
S11312808093900180919001682F80E085D980E05F
S113129096D9882F90E0292F2F938F9387E791E099
S11312A0892F8F9387E791E08F93CE010E96292F94
S11312B02F938F939ED00F900F900F900F900F90BD
S11312C00F90CE010E96BC018CE169D8000086D93E
S11312D08823E9F381E08093410110928D011092FB
S11312E08B011092910136CE97FB072E16F40094D1
S11312F006D077FD08D014D007FC05D03EF49095B5
S113130081959F4F0895709561957F4F0895EE0FD5
S1131310FF1F0024001C0BBE0790F691E02D0994DA
S1131320AA1BBB1B51E107C0AA1FBB1FA617B70707
S113133010F0A61BB70B881F991F5A95A9F7809523
S11313409095BC01CD0108958F929F92AF92BF9268
S1131350CF92DF92EF92FF92CF93DF93EC016881FB
S113136079818A819B81611571058105910521F43B
S113137064E279ED8BE597E02DE133EF41E050E055
S113138029D349015A019B01AC01A7EAB1E43ED338
S11313906B017C01ACEEB4EFA501940143D3DC01F5
S11313A0CB018C0D9D1DAE1DBF1DB7FF03C0019762
S11313B0A109B04888839983AA83BB839F77DF916F
S11313C0CF91FF90EF90DF90CF90BF90AF909F9020
S11313D08F900895B9CF80E091E0B6CFA0E0B0E05F
S11313E08093000190930101A0930201B093030143
S11313F008950F931F93CF93DF93CDB7DEB72E9746
S11314000FB6F894DEBF0FBECDBF0D891E8986E0EE
S11314108C831A8309838FEF9FE79E838D83AE01AC
S1131420475E5F4F6F89788DCE01019610D0EF81B2
S1131430F885E00FF11F10822E960FB6F894DEBFE8
S11314400FBECDBFDF91CF911F910F9108952F92C1
S11314503F924F925F926F927F928F929F92AF9240
S1131460BF92CF92DF92EF92FF920F931F93CF938D
S1131470DF93CDB7DEB72B970FB6F894DEBF0FBE60
S1131480CDBF6C017B018A01FC0117821682838126
S113149081FFBFC1CE0101963C01F6019381F701A2
S11314A093FD859193FF81917F01882309F4ADC158
S11314B0853239F493FD859193FF81917F018532C3
S11314C021F4B60190E0D6D1E8CF912C212C312C17
S11314D0FFE1F315D8F08B3279F038F4803279F0EB
S11314E08332A1F4232D20611DC08D3261F080333D
S11314F069F4232D216016C0832D8260382EE32DDC
S1131500E4603E2E2AC0F32DF8601DC037FC2DC0C8
S113151020ED280F2A3040F08E32B9F436FC75C124
S1131520232D2064322E19C036FE06C08AE0989E10
S1131530200D1124922E11C0EAE02E9E200D1124BC
S1131540222EF32DF0623F2E08C08C3621F4832D19
S11315508068382E02C0883641F4F70193FD8591E6
S113156093FF81917F018111B3CF982F9F7D955473
S1131570933028F40C5F1F4F9FE399830DC083368B
S113158031F0833771F0833509F055C020C0F8017C
S1131590808189830E5F1F4F88248394912C53018B
S11315A012C02801F2E04F0E511CF801A080B18056
S11315B036FE03C0692D70E002C06FEF7FEFC501F6
S11315C04ED14C018201F32DFF773F2E15C0280127
S11315D022E0420E511CF801A080B18036FE03C007
S11315E0692D70E002C06FEF7FEFC5012DD14C0172
S11315F0F32DF0683F2E820133FC19C0822D90E058
S113160088169906A0F4B60180E290E033D12A94BA
S1131610F5CFF50137FC859137FE81915F01B60165
S113162090E028D121102A9421E0821A9108811493
S1131630910479F7E1C0843611F0893639F5F8015F
S113164037FE07C060817181828193810C5F1F4FD7
S113165008C060817181072E000C880B990B0E5F06
S11316601F4FF32DFF763F2E97FF09C0909580956D
S1131670709561957F4F8F4F9F4FF0683F2E2AE002
S113168030E0A30133D1882E861844C0853731F465
S1131690232D2F7EB22E2AE030E025C0932D997F92
S11316A0B92E8F36C1F018F4883579F0AEC0803782
S11316B019F0883721F0A9C0E92FE061BE2EB4FEED
S11316C00DC0FB2DF460BF2E09C034FE0AC0292FC3
S11316D02660B22E06C028E030E005C020E130E0EC
S11316E002C020E132E0F801B7FE07C060817181D9
S11316F0828193810C5F1F4F06C06081718180E0FD
S113170090E00E5F1F4FA301F1D0882E8618FB2DA9
S1131710FF773F2E36FE0DC0232D2E7FA22E891477
S113172058F434FE0BC032FC09C0832D8E7EA82EE3
S113173005C0B82CA32C03C0B82C01C0B92CA4FE3E
S11317400FC0FE01E80DF11D8081803321F49A2D34
S1131750997EA92E09C0A2FE06C0B394B39404C016
S11317608A2D867809F0B394A3FC10C0A0FE06C0AD
S1131770B21480F4280C922C9B180DC0B21458F4A7
S1131780B60180E290E076D0B394F8CFB21418F4A6
S11317902B1802C0982C212CA4FE0FC0B60180E3A4
S11317A090E068D0A2FE16C0A1FC03C088E790E0D8
S11317B002C088E590E0B6010CC08A2D867851F00D
S11317C0A1FE02C08BE201C080E2A7FC8DE2B6015B
S11317D090E050D0891430F4B60180E390E04AD010
S11317E09A94F8CF8A94F301E80DF11D8081B60133
S11317F090E040D08110F6CF222009F44ECEB601FD
S113180080E290E037D02A94F7CFF6018681978161
S113181002C08FEF9FEF2B960FB6F894DEBF0FBE7A
S1131820CDBFDF91CF911F910F91FF90EF90DF908B
S1131830CF90BF90AF909F908F907F906F905F906C
S11318404F903F902F900895FC0105906150704097
S11318500110D8F7809590958E0F9F1F0895FC0175
S11318606150704001900110D8F7809590958E0FCB
S11318709F1F08950F931F93CF93DF93FB01238141
S113188021FD03C08FEF9FEF2CC022FF16C04681BD
S11318905781248135814217530744F4A081B181D3
S11318A09D012F5F3F4F318320838C9326813781A5
S11318B02F5F3F4F3783268314C08B01EC01FB015C
S11318C00084F185E02D0995892BE1F6D80116965F
S11318D08D919C911797019617969C938E931697CA
S11318E0CE01DF91CF911F910F910895FA01AA279C
S11318F0283051F1203181F1E8946F936E7F6E5F4F
S11319007F4F8F4F9F4FAF4FB1E03ED0B4E03CD0FC
S1131910670F781F891F9A1FA11D680F791F8A1FDF
S1131920911DA11D6A0F711D811D911DA11D20D046
S113193009F468943F912AE0269F11243019305D00
S11319403193DEF6CF010895462F4770405D4193F1
S1131950B3E00FD0C9F7F6CF462F4F70405D4A333E
S113196018F0495D31FD4052419302D0A9F7EACF06
S1131970B4E0A6959795879577956795BA95C9F735
S113198000976105710508959B01AC010A2E069428
S11319905795479537952795BA95C9F7620F731FE1
S11319A0841F951FA01D0895F999FECF92BD81BD96
S11319B0F89A992780B50895262FF999FECF1FBA72
S11319C092BD81BD20BD0FB6F894FA9AF99A0FBE64
S11319D001960895052E97FB16F400940FD057FD39
S11319E005D024D007FC02D046F408C05095409599
S11319F0309521953F4F4F4F5F4F089590958095B7
S1131A00709561957F4F8F4F9F4F089531D0A59F5B
S1131A10900DB49F900DA49F800D911D11240895E5
S1131A20B7FFF4CFF3DF821B930B0895A1E21A2EC4
S1131A30AA1BBB1BFD010DC0AA1FBB1FEE1FFF1F6E
S1131A40A217B307E407F50720F0A21BB30BE40BBE
S1131A50F50B661F771F881F991F1A9469F7609505
S1131A607095809590959B01AC01BD01CF010895BF
S1131A70A29FB001B39FC001A39F700D811D1124CB
S1131A80911DB29F700D811D1124911D0895F8942C
S1051A90FFCF82
S1131A9201000000010000001C1A1E1C1E1C1C1464
S1131AA200000000000E1F1F000004081F080400AD
S1131AB21E08040000000000000000000004081ECC
S1131AC2000000001F1D1F141F1D1F140000000032
S1131AD201013252004C00410044005500300053D1
S1131AE2656C656374446966666963756C747920B0
S1131AF24C422C2052422C204100596F75722073A3
S1131B02636F72653A200025640048696768207330
S1091B12636F72653A00E6
S9030000FC
