S01B000063626F74743030315F6C6162395F70617274332E737265634C
S113000045C0000060C000005EC000005CC000008D
S11300105AC0000058C0000056C0000054C0000080
S113002052C0000050C000004EC000004CC0000090
S11300304AC000006DC0000046C0000044C000007B
S113004042C0000040C000003EC000003CC00000B0
S11300503AC0000038C0000036C0000034C00000C0
S113006032C0000030C000002EC000002CC00000D0
S11300702AC0000028C0000026C0000024C00000E0
S113008022C0000020C000001EC0000011241FBEBA
S1130090CFEFD0E4DEBFCDBF11E0A0E0B1E0E6E7F2
S11300A0F6E000E00BBF02C007900D92A031B1074B
S11300B0D9F721E0A0E1B1E001C01D92A931B20756
S11300C0E1F7D5D0D6C29CCF8BE0809381008DE739
S11300D090E0909389008093880082E080936F0081
S11300E0109285001092840080910001909101018A
S11300F0A0910201B0910301809314019093150122
S1130100A0931601B09317018FB780688FBF08952D
S11301101F920F920FB60F9211248F939F93AF9358
S1130120BF938091140190911501A0911601B09193
S113013017010197A109B109809314019093150146
S1130140A0931601B0931701892B8A2B8B2B99F45A
S113015081E0809318018091000190910101A091A8
S11301600201B09103018093140190931501A093AF
S11301701601B0931701BF91AF919F918F910F908A
S11301800FBE0F901F9018956093000170930101AA
S113019080930201909303016093140170931501FD
S11301A080931601909317010895CF92DF92EF92F6
S11301B0FF926B017C019B01AC0160911001709175
S11301C0110180911201909113019DD0882309F4AB
S11301D040C020E030E0A901C701B60194D08111EC
S11301E004C085B5887085BD03C085B5836085BDB1
S11301F028E539E344E75FE3C701B60184D08823E7
S11302001CF48FEF87BD1CC020E034E244EF56E4B9
S1130210C701B601C7D1181614F417BC11C020E0E9
S113022030E040E053E4C701B601C0D19B01AC010A
S113023060E074E284EF9AE46AD0D1D0615067BD83
S113024016BCC0921001D0921101E0921201F092FA
S11302501301FF90EF90DF90CF90089580E484BD68
S11302608BE085BD60E070E0CB019FCF0895CF9314
S1130270DF93CDB7DEB72C970FB6F894DEBF0FBE71
S1130280CDBF8FEF81B910B880B11EDFE7DF86E004
S1130290E4E0F1E0DE01119601900D928A95E1F718
S11302A086E0EAE0F1E0DE01179601900D928A956E
S11302B0E1F710E0D12C0D2D80B18F3FE9F3E12E51
S11302C0F12CE7E0F0E0EC0FFD1FEE0DFF1D608167
S11302D070E080E090E058DFE1E0F0E0EC0FFD1F1B
S11302E0EE0DFF1D608170E080E090E0A9D05DDF3D
S11302F002C080B1102F809118018111FACF1F5FC5
S1130300D0921801D9CFD9D008F481E008950CD047
S11303100FC107D140F0FED030F021F45F3F19F057
S1130320F0C0511139C1F3C014D198F39923C9F322
S11303305523B1F3951B550BBB27AA2762177307E7
S1130340840738F09F5F5F4F220F331F441FAA1F9B
S1130350A9F333D00E2E3AF0E0E830D0915050405B
S1130360E695001CCAF729D0FE2F27D0660F771F09
S1130370881FBB1F261737074807AB07B0E809F0EB
S1130380BB0B802DBF01FF2793585F4F2AF09E3F80
S1130390510568F0B6C000C15F3FECF3983EDCF352
S11303A0869577956795B795F7959F5FC9F7880FF9
S11303B0911D9695879597F90895E1E0660F771F4B
S11303C0881FBB1F621773078407BA0720F0621BDC
S11303D0730B840BBA0BEE1F88F7E095089504D0D5
S11303E06894B111D9C00895BCD088F09F5790F09B
S11303F0B92F9927B751A0F0D1F0660F771F881F46
S1130400991F1AF0BA95C9F712C0B13081F0C3D060
S1130410B1E00895C0C0672F782F8827B85F39F0FE
S1130420B93FCCF3869577956795B395D9F73EF4A4
S113043090958095709561957F4F8F4F9F4F08954C
S1130440E89409C097FB3EF490958095709561956A
S11304507F4F8F4F9F4F9923A9F0F92F96E9BB2720
S11304609395F695879577956795B795F111F8CF9C
S1130470FAF4BB0F11F460FF1BC06F5F7F4F8F4F07
S11304809F4F16C0882311F096E911C0772321F0FD
S11304909EE8872F762F05C0662371F096E8862F95
S11304A070E060E02AF09A95660F771F881FDAF7EC
S11304B0880F9695879597F90895990F0008550F19
S11304C0AA0BE0E8FEEF16161706E807F907C0F0D6
S11304D012161306E407F50798F0621B730B840BDE
S11304E0950B39F40A2661F0232B242B252B21F4B8
S11304F008950A2609F4A140A6958FEF811D811D58
S1130500089597F99F6780E870E060E008959FEF91
S113051080EC089500240A94161617061806090696
S1130520089500240A941216130614060506089565
S1130530092E0394000C11F4882352F0BB0F40F4ED
S1130540BF2B11F460FF04C06F5F7F4F8F4F9F4F2D
S1130550089557FD9058440F551F59F05F3F71F0AF
S11305604795880F97FB991F61F09F3F79F0879516
S11305700895121613061406551FF2CF4695F1DF9F
S113058008C0161617061806991FF1CF869571052F
S1130590610508940895E894BB2766277727CB0163
S11305A097F908958ADF08F48FEF08950BD0C0CF30
S11305B0B1DF28F0B6DF18F0952309F0A2CFA7CF5A
S11305C01124EACFC6DFA0F3959FD1F3950F50E035
S11305D0551F629FF001729FBB27F00DB11D639FF1
S11305E0AA27F00DB11DAA1F649F6627B00DA11D97
S11305F0661F829F2227B00DA11D621F739FB00D3D
S1130600A11D621F839FA00D611D221F749F3327AC
S1130610A00D611D231F849F600D211D822F762F45
S11306206A2F11249F5750408AF0E1F088234AF042
S1130630EE0FFF1FBB1F661F771F881F915050408E
S1130640A9F79E3F510570F05CCFA6CF5F3FECF356
S1130650983EDCF3869577956795B795F795E7957A
S11306609F5FC1F7FE2B880F911D9695879597F98B
S10906700895F894FFCF89
S1130676010000004AF6052605F6E8F4F4E8F4F469
S9030000FC
