:1000000055C000005BC0000059C0000057C0000090
:1000100055C0000053C0000051C000004FC0000098
:100020004DC000004BC0000049C0000047C00000A8
:1000300045C0000043C0000041C000003FC00000B8
:100040003DC000003BC0000039C0000037C00000C8
:1000500035C0000033C0000031C000002FC00000D8
:100060002DC000002BC0000029C0000027C00000E8
:1000700025C0000023C0000021C000001FC00000F8
:100080001DC000001BC0000019C00000E400E40017
:10009000E400E700E700EA00EA00ED00ED00ED0013
:1000A000F000F000F000F300F300F30011241FBE95
:1000B000CFEFD0E4DEBFCDBF4ED0C9C0A1CFCF932C
:1000C000DF9300D0CDB7DEB789836A838981882F1B
:1000D00090E02A81222F30E002C0959587952A95DD
:1000E000E2F78170992721E0892B09F420E0822F23
:1000F0000F900F90DF91CF910895CF93DF9300D0B1
:100100001F92CDB7DEB789836A834B838B818823A7
:1001100071F08A81282F30E081E090E002C0880FE2
:10012000991F2A95E2F7982F8981892B0EC08A8121
:10013000282F30E081E090E002C0880F991F2A95B7
:10014000E2F7982F9095898189230F900F900F9057
:10015000DF91CF910895CF93DF9300D000D01F920D
:10016000CDB7DEB781E290E0FC01108282E290E040
:100170002FEFFC01208387E290E02FEFFC0120832A
:1001800088E290E0FC01108280E290E0FC01808136
:100190008A831B821C821D8219828A818F708A83C6
:1001A0008A81882F90E0092E000CAA0BBB0B40E03F
:1001B00050E02FE030E0841B950B28173907B0F092
:1001C0008A5B9F4FFC013AC080E6898310C080E7BC
:1001D00089830DC088E389830AC08CE3898307C0C3
:1001E0008EE3898304C08FE3898301C0000080E22D
:1001F00090E0FC0180818A8364E08A8160DF8B83E8
:1002000065E08A815CDF8C8366E08A8158DF8D83BC
:100210008B81882369F08C81882351F08D81882F10
:1002200090E0019629F041E067E0898166DF8983EB
:1002300088E290E02981FC012083A6CFEE0FFF1F0A
:100240000024001C0BBE0790F691E02D0994F89451
:02025000FFCFDE
:00000001FF
