S01B000063626F74743030315F6C6162375F70617274312E7372656350
S113000045C0000060C000005EC000005CC000008D
S11300105AC0000058C0000056C0000054C0000080
S113002052C0000050C000004EC000004CC0000090
S11300304AC00000F8C0000046C0000044C00000F0
S113004042C0000040C000003EC000003CC00000B0
S11300503AC0000038C0000036C0000034C00000C0
S113006032C0000030C000002EC000002CC00000D0
S11300702AC0000028C0000026C0000024C00000E0
S113008022C0000020C000001EC0000011241FBEBA
S1130090CFEFD0E4DEBFCDBF11E0A0E0B1E0E8E6F1
S11300A0F4E000E00BBF02C007900D92A430B1074A
S11300B0D9F721E0A4E0B1E001C01D92A930B20754
S11300C0E1F740D1CFC19CCFCF93DF93CDB7DEB75B
S11300D084E690E06DD088E30DD086E00BD08FE00D
S11300E009D081E007D08AE090E062D00000DF917F
S11300F0CF910895CF93DF931F92CDB7DEB7898355
S113010085E290E025E230E0F90120812E7FFC01B8
S113011020838BE290E02981FC01208385E290E03A
S113012025E230E0F90120812260FC0120830000F7
S113013085E290E025E230E0F90120812D7FFC0189
S1130140208382E090E034D000000F90DF91CF91C3
S11301500895CF93DF931F92CDB7DEB7898385E2ED
S113016090E025E230E0F90120812160FC01208348
S11301708BE290E02981FC01208385E290E025E276
S113018030E0F90120812260FC012083000085E237
S113019090E025E230E0F90120812D7FFC012083ED
S11301A081E090E005D000000F90DF91CF91089599
S11301B0CF93DF9300D000D000D0CDB7DEB79E83BD
S11301C08D831A82198213C01C821B8206C0000010
S11301D08B819C8101969C838B838B819C8187304E
S11301E09340ACF389819A8101969A83898329810A
S11301F03A818D819E812817390734F300002696B1
S11302000FB6F894DEBF0FBECDBFDF91CF91089536
S1130210CF93DF93CDB7DEB781E080930401000074
S1130220DF91CF9108951F920F9200905F000F927B
S1130230112400905B000F922F933F934F935F9391
S11302406F937F938F939F93AF93BF93EF93FF939A
S1130250CF93DF93CDB7DEB780910501909106016E
S1130260A0910701B09108010197A109B1098093F8
S1130270050190930601A0930701B09308018091B2
S1130280050190910601A0910701B0910801892B05
S11302908A2B8B2B89F4BCDF8091000190910101A2
S11302A0A0910201B091030180930501909306018E
S11302B0A0930701B09308010000DF91CF91FF9153
S11302C0EF91BF91AF919F918F917F916F915F91CA
S11302D04F913F912F910F9000925B000F900092ED
S11302E05F000F901F901895CF93DF9300D000D03C
S11302F0CDB7DEB769837A838B839C8389819A81A6
S1130300AB81BC818093000190930101A093020111
S1130310B09303018091000190910101A091020129
S1130320B09103018093050190930601A093070106
S1130330B093080100000F900F900F900F90DF9181
S1130340CF910895CF93DF9300D000D0CDB7DEB71F
S113035087E290E02FEFFC01208388E290E0FC012B
S113036010828AE290E02FEFFC0120838BE290E080
S1130370FC01108281E290E0FC01108282E290E0B4
S11303802FEFFC01208384E290E02FEFFC01208317
S113039085E290E0FC01108287E089831B821C8245
S11303A01A8292DE60E177E280E090E09DDF80E2F5
S11303B090E0FC018081882F90E08170992721E0F2
S11303C0892B09F020E02B8380E290E0FC018081FE
S11303D0809582708C838C8186958C838A81882F0A
S11303E090E0009719F0019749F12EC08B81882382
S11303F039F08C81882321F0198281E08A8326C018
S11304008B81882339F08981893000F589818F5F58
S113041089831CC08C818823C9F08981882319F0C1
S11304208981815089830000809104018823E1F748
S11304308B81882359F081E08A8308C09B818C8159
S1130440981731F41A8204C01A8203C0000001C054
S1130450000085E290E02981FC0120838981805D90
S10B046078DE9FCFF894FFCF72
S1070468010000008B
S9030000FC
