:1000000045C0000060C000005EC000005CC0000091
:100010005AC0000058C0000056C0000054C0000084
:1000200052C0000050C000004EC000004CC0000094
:100030004AC000006DC0000046C0000044C000007F
:1000400042C0000040C000003EC000003CC00000B4
:100050003AC0000038C0000036C0000034C00000C4
:1000600032C0000030C000002EC000002CC00000D4
:100070002AC0000028C0000026C0000024C00000E4
:1000800022C0000020C000001EC0000011241FBEBE
:10009000CFEFD0E4DEBFCDBF11E0A0E0B1E0EAE4F5
:1000A000F2E000E00BBF02C007900D92A430B10750
:1000B000D9F721E0A4E0B1E001C01D92A930B20758
:1000C000E1F773D0C0C09CCF8BE0809381008DE7B7
:1000D00090E0909389008093880082E080936F0085
:1000E000109285001092840080910001909101018E
:1000F000A0910201B0910301809304019093050146
:10010000A0930601B09307018FB780688FBF089551
:100110001F920F920FB60F9211248F939F93AF935C
:10012000BF938091040190910501A0910601B091C7
:1001300007010197A109B10980930401909305017A
:10014000A0930601B0930701892B8A2B8B2B99F47E
:1001500081E0809308018091000190910101A091BC
:100160000201B09103018093040190930501A093D3
:100170000601B0930701BF91AF919F918F910F90AE
:100180000FBE0F901F9018956093000170930101AE
:100190008093020190930301609304017093050121
:1001A000809306019093070108958FEF84B915B8E5
:1001B00011B882B96EE170E080E090E0E5DF84DFA5
:1001C00060E090E030E040E071E0572FE2E0242F63
:1001D00002C0009B252F809108018823D1F3913024
:1001E000B1F018F09230B9F01CC03F5F333021F00D
:1001F000353018F031E001C034E02130D9F432302C
:1002000091F03430A1F06E2F972F34E013C02111FC
:1002100011C0962F0FC0222369F0642F972F30E072
:1002200009C0942F07C06E2F972F31E003C06E2FA7
:10023000972F32E0892F880F880F880F832B85B97D
:0A02400040930801C4CFF894FFCFEB
:04024A0001000000AF
:00000001FF
