:100000008AC00000A5C00000A3C00000A1C000007D
:100010009FC000009DC000009BC0000099C0000070
:1000200097C0000095C0000093C0000091C0000080
:100030008FC000008EC000008BC0000089C000008F
:1000400087C0000085C0000083C0000081C00000A0
:100050007FC000007DC000007BC0000079C00000B0
:1000600077C0000075C0000073C0000071C00000C0
:100070006FC000006DC000006BC0000069C00000D0
:1000800067C0000065C0000063C000000D013F01B3
:100090003F013F013F013F013F013F013F013F0160
:1000A0003F013F013F013F013F013F013F013F0150
:1000B0003F013F013F013F013F013F013F013F0140
:1000C0003F013F013F013F013F013F013F013F0130
:1000D0003F013C013F013F013F013F013F013F0123
:1000E00037013F013F013F013F013F013A0110014C
:1000F0001301160119011C011F012201250128010C
:100100003F013F013F013F013F013F013F012B0103
:100110002E013101340111241FBECFEFD0E4DEBF28
:10012000CDBF11E0A0E0B1E0EAE2F3E000E00BBFF8
:1001300002C007900D92A430B107D9F721E0A4E0E6
:10014000B1E001C01D92A431B207E1F79DD0EBC030
:1001500057CF1F920F920FB60F9211248F939F9338
:10016000AF93BF9380910F0190911001A091110165
:10017000B09112010197A109B10980930F019093E9
:100180001001A0931101B0931201892B8A2B8B2BA4
:1001900099F481E080931301809100019091010115
:1001A000A0910201B091030180930F01909310017F
:1001B000A0931101B0931201BF91AF919F918F91C4
:1001C0000F900FBE0F901F9018958FEE88B900000A
:1001D000309B10C0319B10C0329B10C0339B10C0AD
:1001E0008FED88B90000309B0DC08FEB88B90000FF
:1001F00080E0089581E3089584E3089587E30895F6
:100200008AE2089582E30895E0DF90E08534910565
:10021000B0F5FC01EA5BFF4F7DC08FE185B931C0CD
:1002200081E085B92EC082E085B92BC083E085B915
:1002300028C084E085B925C085E085B922C086E064
:1002400085B91FC087E085B91CC088E085B919C091
:1002500089E085B916C08AE085B913C08BE085B9FD
:1002600010C08CE085B90DC08DE085B90AC08EE064
:1002700085B907C015B805C08FE085B902C08BE10C
:1002800085B980E090E008958FEF84B915B890EFBC
:1002900097B99FE098B9E4E0F1E0808381E090E0D5
:1002A000A0E0B0E081839283A383B4831582168299
:1002B0001782108684E091E092878187EF014D815B
:1002C0005E816F81788589819A81AB81BC81481775
:1002D00059076A077B0761F48881E985FA85082E4A
:1002E000000C990B099588831D821E821F82188637
:1002F0008D819E81AF81B8850196A11DB11D8D8331
:100300009E83AF83B887809113018823E1F3109215
:100310001301D5CFEE0FFF1F0024001C0BBE07906A
:0A032000F691E02D0994F894FFCF48
:04032A0001000000CE
:00000001FF
