S01C000063626F74743030315F6C616231315F70617274322E7372656323
S11300008AC00000A5C00000A3C00000A1C0000079
S11300109FC000009DC000009BC0000099C000006C
S113002097C0000095C0000093C0000091C000007C
S11300308FC0000017C100008BC0000089C0000001
S113004087C0000085C0000083C0000081C000009C
S11300507FC000007DC000007BC0000079C00000AC
S113006077C0000075C0000073C0000071C00000BC
S11300706FC000006DC000006BC0000069C00000CC
S113008067C0000065C0000063C00000B7021C0325
S11300901C031C031C031C031C031C031C031C0364
S11300A01C031C031C031C031C031C031C031C0354
S11300B01C031C031C031C031C031C031C031C0344
S11300C01C031C031C031C031C031C031C031C0334
S11300D01C0316031C031C031C031C031C031C032A
S11300E00B031C031C031C031C031C031103BD0290
S11300F0C302C902CF02D502DB02E102E702ED022C
S11301001C031C031C031C031C031C031C03F3021D
S1130110F902FF02050311241FBECFEFD0E4DEBFB6
S1130120CDBF11E0A0E0B1E0E4E1FAE000E00BBFF4
S113013002C007900D92A430B107D9F721E0A4E0E2
S1130140B1E001C01D92AF31B207E1F727D360C41B
S113015057CFCF93DF9300D0CDB7DEB789836A83BF
S11301608A81282F30E081E090E002C0880F991F37
S11301702A95E2F7982F898189230F900F90DF91B8
S1130180CF910895CF93DF9300D000D0CDB7DEB7E1
S113019069837A838B839C8389819A81AB81BC81B7
S11301A08093000190930101A0930201B093030195
S11301B08091000190910101A0910201B09103018D
S11301C08093050190930601A0930701B093080161
S11301D000000F900F900F900F90DF91CF91089532
S11301E0CF93DF93CDB7DEB781E890E02BE0FC013D
S11301F0208388E890E02DE730E0FC013183208300
S11302008FE690E022E0FC01208384E890E0FC018A
S1130210118210828091000190910101A09102014C
S1130220B09103018093050190930601A093070107
S1130230B09308018FE590E02FE530E0F9012081CB
S11302402068FC0120830000DF91CF910895CF93B3
S1130250DF93CDB7DEB781E0809304010000DF9126
S1130260CF9108951F920F9200905F000F92112476
S113027000905B000F922F933F934F935F936F9384
S11302807F938F939F93AF93BF93EF93FF93CF93FA
S1130290DF93CDB7DEB78091050190910601A0915F
S11302A00701B09108010197A109B10980930501E3
S11302B090930601A0930701B09308018091050172
S11302C090910601A0910701B0910801892B8A2B16
S11302D08B2B89F4BCDF8091000190910101A091E6
S11302E00201B09103018093050190930601A0934C
S11302F00701B09308010000DF91CF91FF91EF91C6
S1130300BF91AF919F918F917F916F915F914F9129
S11303103F912F910F9000925B000F9000925F002D
S11303200F901F901895CF93DF93CDB7DEB784E677
S113033090E082D088E30DD086E00BD08FE009D026
S113034081E007D08AE090E077D00000DF91CF9180
S11303500895CF93DF931F92CDB7DEB7898382E2EE
S113036090E022E230E0F90120812E7FFC0120831D
S11303708BE290E02981FC01208382E290E022E27A
S113038030E0F90120812260FC012083000082E238
S113039090E022E230E0F90120812D7FFC012083EE
S11303A082E090E049D000000F90DF91CF91089552
S11303B0CF93DF931F92CDB7DEB7898382E290E0BB
S11303C022E230E0F90120812160FC0120838BE2EC
S11303D090E02981FC01208382E290E022E230E077
S11303E0F90120812260FC012083000082E290E078
S11303F022E230E0F90120812D7FFC01208381E09D
S113040090E01AD000000F90DF91CF910895CF9320
S1130410DF931F92CDB7DEB789838981813120F4C0
S11304208981815896DF03C08981815592DF00005C
S11304300F90DF91CF910895CF93DF9300D000D038
S113044000D0CDB7DEB79E838D831A82198213C084
S11304501C821B8206C000008B819C8101969C83B8
S11304608B838B819C8187309340ACF389819A8103
S113047001969A83898329813A818D819E812817E7
S1130480390734F3000026960FB6F894DEBF0FBE8A
S1130490CDBFDF91CF910895CF93DF93CDB7DEB772
S11304A088E290E02FEEFC012083000086E290E0D9
S11304B0FC01808160E04DDE882311F481E335C0C6
S11304C086E290E0FC01808161E043DE882311F440
S11304D084E32BC086E290E0FC01808162E039DE97
S11304E0882311F487E321C086E290E0FC01808137
S11304F063E02FDE882311F48AE217C088E290E0DB
S11305002FEDFC012083000086E290E0FC01808155
S113051060E01FDE882311F482E307C088E290E0E4
S11305202FEBFC012083000080E0DF91CF91089540
S1130530CF93DF9300D01F92CDB7DEB79B838A831E
S1130540ABDF89838981882F90E0092E000CAA0BE8
S1130550BB0B40E050E024E430E0841B950B2817EB
S1130560390708F469C08A5B9F4FFC0148C285E2E1
S113057090E02FE1FC01208365C085E290E021E05A
S1130580FC0120835FC085E290E022E0FC0120832F
S113059059C085E290E023E0FC01208353C085E24A
S11305A090E024E0FC0120834DC085E290E025E04A
S11305B0FC01208347C085E290E026E0FC01208313
S11305C041C085E290E027E0FC0120833BC085E246
S11305D090E028E0FC01208335C085E290E029E02A
S11305E0FC0120832FC085E290E02AE0FC012083F7
S11305F029C085E290E02BE0FC01208323C085E242
S113060090E02CE0FC0120831DC085E290E02DE009
S1130610FC01208317C085E290E02EE0FC012083DA
S113062011C085E290E0FC0110820CC085E290E0EC
S11306302FE0FC01208306C085E290E02BE1FC0161
S11306402083000080E090E00F900F900F90DF91E6
S1130650CF910895CF93DF93CDB7DEB7AC970FB6A4
S1130660F894DEBF0FBECDBF9CA78BA7198228E2EA
S1130670CE010396FC01322F11923A95E9F780E2FC
S11306808B8383E48C8383E58D8381E38E8382E390
S11306908F8380E3888782E4898780E28A8789E67A
S11306A08B8783E78C8780E28D878CE48E8785E651
S11306B08F8787E6888B85E6898B8EE68A8B84E62E
S11306C08B8B8EE28C8B8EE28D8B8EE28E8B80E216
S11306D08F8B87E7888F81E6898F89E68A8F84E705
S11306E08B8F80E28C8F86E68D8F8FE68E8F82E7EC
S11306F08F8F80E288A389E689A384E78AA380E2B6
S11307008BA384E48CA381E48DA382E58EA389E585
S11307108FA381E288A78BA581508A832AC089810F
S1130720813118F4898173DE03C0198289816FDEF7
S11307308A81833260F48A81882F90E09E012D5F44
S11307403F4F820F931FFC01808132DE0CC08A81EF
S1130750882F90E086979E012D5F3F4F820F931F55
S1130760FC01808125DE8A818F5F8A8389818F5F86
S113077089838A81282F30E08BA59CA54096281771
S113078039076CF28BA59CA50196AC960FB6F8942C
S1130790DEBF0FBECDBFDF91CF9108950F931F939E
S11307A0CF93DF93CDB7DEB727970FB6F894DEBFAC
S11307B00FBECDBF84E290E02FEFFC01208385E2E1
S11307C090E0FC01108287E290E020EFFC0120839E
S11307D088E290E02FE0FC0120838AE290E02FEF92
S11307E0FC0120838BE290E0FC01108281E290E026
S11307F02FEFFC01208382E290E0FC01108293DD64
S113080089E091E09D838C8384E191E09F838E83D2
S113081082E090E09B838A838FEF8093090181E0DB
S113082090E0A0E0B0E080930A0190930B01A093C4
S11308300C01B0930D0110920E0110920F01109251
S113084010011092110188E992E0909313018093B2
S113085012011092140181E090E0A0E0B0E08093D6
S1130860150190931601A0931701B09318011092EB
S1130870190110921A0110921B0110921C018AE2B4
S113088093E090931E0180931D0162E370E080E089
S113089090E078DCA5DC1982A1C08981882F90E0E2
S11308A0880F991F9E012F5F3F4F820F931F03965E
S11308B0FC0180819181FC0125813681478150852D
S11308C08981882F90E0880F991FBE016F5F7F4F49
S11308D0860F971F0396FC0180819181FC01818121
S11308E09281A381B481281739074A075B0709F06D
S11308F049C08981882F90E0880F991F9E012F5F3E
S11309003F4F820F931F0396FC010081118189815F
S1130910882F90E0880F991F9E012F5F3F4F820F11
S1130920931F0396FC0180819181FC01218532850E
S11309308981882F90E0880F991FAE014F5F5F4F28
S1130940840F951F0396FC0180819181FC018081B5
S1130950082E000C990BF9010995F801808389810F
S1130960882F90E0880F991F9E012F5F3F4F820FC1
S1130970931F0396FC0180819181FC0115821682EC
S1130980178210868981882F90E0880F991F9E0115
S11309902F5F3F4F820F931F0396FC01208131810B
S11309A08981882F90E0880F991FAE014F5F5F4FB8
S11309B0840F951F0396FC0180819181FC01858140
S11309C09681A781B0850196A11DB11DF90185838A
S11309D09683A783B08789818F5F89838981282F34
S11309E030E08A819B812817390708F456CF00002C
S11309F0809104018823E1F3109204014CCFEE0F9F
S1130A00FF1F0024001C0BBE0790F691E02D0994F3
S1070A10F894FFCF84
S1070A1401000000D9
S9030000FC
