:1000000045C0000060C000005EC000005CC0000091
:100010005AC0000058C0000056C0000054C0000084
:1000200052C0000050C000004EC000004CC0000094
:100030004AC000006DC0000046C0000044C000007F
:1000400042C0000040C000003EC000003CC00000B4
:100050003AC0000038C0000036C0000034C00000C4
:1000600032C0000030C000002EC000002CC00000D4
:100070002AC0000028C0000026C0000024C00000E4
:1000800022C0000020C000001EC0000011241FBEBE
:10009000CFEFD0E4DEBFCDBF11E0A0E0B1E0ECE6F1
:1000A000F2E000E00BBF02C007900D92A430B10750
:1000B000D9F721E0A4E0B1E001C01D92AC30B20755
:1000C000E1F7A9D0D1C09CCF8BE0809381008DE770
:1000D00090E0909389008093880082E080936F0085
:1000E000109285001092840080910001909101018E
:1000F000A0910201B0910301809307019093080140
:10010000A0930901B0930A018FB780688FBF08954B
:100110001F920F920FB60F9211248F939F93AF935C
:10012000BF938091070190910801A0910901B091BE
:100130000A010197A109B109809307019093080171
:10014000A0930901B0930A01892B8A2B8B2B99F478
:1001500081E080930B018091000190910101A091B9
:100160000201B09103018093070190930801A093CD
:100170000901B0930A01BF91AF919F918F910F90A8
:100180000FBE0F901F9018956093000170930101AE
:10019000809302019093030160930701709308011B
:1001A0008093090190930A010895909106019F5F41
:1001B0009E3118F4909306010895882341F0813010
:1001C00041F0823041F0843039F480E005C081E0B4
:1001D00003C082E001C084E010920601089590916E
:1001E00005019F5F943618F49093050108951092CD
:1001F000050180958870089500990CC090910401C4
:100200009F5F923018F49093040108958095807157
:1002100010920401089511B88FEF82B984B915B80E
:1002200053DF61E070E080E090E0AEDF10E0D0E00E
:10023000C0E000E080910B018823E1F38C2FB5DF53
:10024000C82F8D2FCCDFD82F812FD6DF182F009904
:1002500002C090E201C0902F8C2F8D2B812B892B17
:0C02600085B900930B01E6CFF894FFCFA6
:04026C00010000008D
:00000001FF
