S01C000063626F74743030315F6C616231305F70617274322E7372656324
S113000045C0000060C000005EC000005CC000008D
S11300105AC0000058C0000056C0000054C0000080
S113002052C0000050C000004EC000004CC0000090
S11300304AC000006DC0000046C0000044C000007B
S113004042C0000040C000003EC000003CC00000B0
S11300503AC0000038C0000036C0000034C00000C0
S113006032C0000030C000002EC000002CC00000D0
S11300702AC0000028C0000026C0000024C00000E0
S113008022C0000020C000001EC0000011241FBEBA
S1130090CFEFD0E4DEBFCDBF11E0A0E0B1E0E2E3FA
S11300A0F2E000E00BBF02C007900D92A430B1074C
S11300B0D9F721E0A4E0B1E001C01D92AB30B20752
S11300C0E1F79AD0B4C09CCF8BE0809381008DE798
S11300D090E0909389008093880082E080936F0081
S11300E0109285001092840080910001909101018A
S11300F0A0910201B091030180930601909307013E
S1130100A0930801B09309018FB780688FBF089549
S11301101F920F920FB60F9211248F939F93AF9358
S1130120BF938091060190910701A0910801B091BD
S113013009010197A109B109809306019093070170
S1130140A0930801B0930901892B8A2B8B2B99F476
S113015081E080930A018091000190910101A091B6
S11301600201B09103018093060190930701A093CB
S11301700801B0930901BF91AF919F918F910F90A6
S11301800FBE0F901F9018956093000170930101AA
S11301908093020190930301609306017093070119
S11301A080930801909309010895909105019F5F40
S11301B0933018F4909305010895882341F0813019
S11301C041F0823041F0843039F480E005C081E0B0
S11301D003C082E001C084E010920501089590916B
S11301E004019F5F9A3018F49093040108951092CB
S11301F004018095887008958FEF84B915B864DF81
S11302006AE070E080E090E0BFDFD0E0C0E0809181
S11302100A018823E1F38C2FC8DFC82F8D2FDFDF7D
S1130220D82F8C2F8D2B85B910920A01F0CFF8941A
S1050230FFCFFA
S107023201000000C3
S9030000FC
